{"contracts/FileStorage.sol":{"FileStorage":{"abi":[{"inputs":[{"internalType":"string","name":"_hash","type":"string"}],"name":"addFile","outputs":[],"stateMutability":"nonpayable","type":"function"},{"inputs":[{"internalType":"address","name":"","type":"address"},{"internalType":"uint256","name":"","type":"uint256"}],"name":"files","outputs":[{"internalType":"string","name":"ipfsHash","type":"string"},{"internalType":"address","name":"owner","type":"address"}],"stateMutability":"view","type":"function"},{"inputs":[],"name":"getFiles","outputs":[{"components":[{"internalType":"string","name":"ipfsHash","type":"string"},{"internalType":"address","name":"owner","type":"address"}],"internalType":"struct FileStorage.File[]","name":"","type":"tuple[]"}],"stateMutability":"view","type":"function"}],"evm":{"bytecode":{"linkReferences":{},"object":"608060405234801561001057600080fd5b50610bd4806100206000396000f3fe608060405234801561001057600080fd5b50600436106100415760003560e01c80632ba6978e146100465780632da96d7314610077578063eb9b9b6414610095575b600080fd5b610060600480360381019061005b91906104b9565b6100b1565b60405161006e929190610598565b60405180910390f35b61007f61019a565b60405161008c9190610720565b60405180910390f35b6100af60048036038101906100aa9190610877565b61031d565b005b600060205281600052604060002081815481106100cd57600080fd5b9060005260206000209060020201600091509150508060000180546100f1906108ef565b80601f016020809104026020016040519081016040528092919081815260200182805461011d906108ef565b801561016a5780601f1061013f5761010080835404028352916020019161016a565b820191906000526020600020905b81548152906001019060200180831161014d57829003601f168201915b5050505050908060010160009054906101000a900473ffffffffffffffffffffffffffffffffffffffff16905082565b60606000803373ffffffffffffffffffffffffffffffffffffffff1673ffffffffffffffffffffffffffffffffffffffff168152602001908152602001600020805480602002602001604051908101604052809291908181526020016000905b82821015610314578382906000526020600020906002020160405180604001604052908160008201805461022d906108ef565b80601f0160208091040260200160405190810160405280929190818152602001828054610259906108ef565b80156102a65780601f1061027b576101008083540402835291602001916102a6565b820191906000526020600020905b81548152906001019060200180831161028957829003601f168201915b505050505081526020016001820160009054906101000a900473ffffffffffffffffffffffffffffffffffffffff1673ffffffffffffffffffffffffffffffffffffffff1673ffffffffffffffffffffffffffffffffffffffff1681525050815260200190600101906101fa565b50505050905090565b6000803373ffffffffffffffffffffffffffffffffffffffff1673ffffffffffffffffffffffffffffffffffffffff16815260200190815260200160002060405180604001604052808381526020013373ffffffffffffffffffffffffffffffffffffffff16815250908060018154018082558091505060019003906000526020600020906002020160009091909190915060008201518160000190816103c49190610acc565b5060208201518160010160006101000a81548173ffffffffffffffffffffffffffffffffffffffff021916908373ffffffffffffffffffffffffffffffffffffffff160217905550505050565b6000604051905090565b600080fd5b600080fd5b600073ffffffffffffffffffffffffffffffffffffffff82169050919050565b600061045082610425565b9050919050565b61046081610445565b811461046b57600080fd5b50565b60008135905061047d81610457565b92915050565b6000819050919050565b61049681610483565b81146104a157600080fd5b50565b6000813590506104b38161048d565b92915050565b600080604083850312156104d0576104cf61041b565b5b60006104de8582860161046e565b92505060206104ef858286016104a4565b9150509250929050565b600081519050919050565b600082825260208201905092915050565b60005b83811015610533578082015181840152602081019050610518565b60008484015250505050565b6000601f19601f8301169050919050565b600061055b826104f9565b6105658185610504565b9350610575818560208601610515565b61057e8161053f565b840191505092915050565b61059281610445565b82525050565b600060408201905081810360008301526105b28185610550565b90506105c16020830184610589565b9392505050565b600081519050919050565b600082825260208201905092915050565b6000819050602082019050919050565b600082825260208201905092915050565b6000610610826104f9565b61061a81856105f4565b935061062a818560208601610515565b6106338161053f565b840191505092915050565b61064781610445565b82525050565b6000604083016000830151848203600086015261066a8282610605565b915050602083015161067f602086018261063e565b508091505092915050565b6000610696838361064d565b905092915050565b6000602082019050919050565b60006106b6826105c8565b6106c081856105d3565b9350836020820285016106d2856105e4565b8060005b8581101561070e57848403895281516106ef858261068a565b94506106fa8361069e565b925060208a019950506001810190506106d6565b50829750879550505050505092915050565b6000602082019050818103600083015261073a81846106ab565b905092915050565b600080fd5b600080fd5b7f4e487b7100000000000000000000000000000000000000000000000000000000600052604160045260246000fd5b6107848261053f565b810181811067ffffffffffffffff821117156107a3576107a261074c565b5b80604052505050565b60006107b6610411565b90506107c2828261077b565b919050565b600067ffffffffffffffff8211156107e2576107e161074c565b5b6107eb8261053f565b9050602081019050919050565b82818337600083830152505050565b600061081a610815846107c7565b6107ac565b90508281526020810184848401111561083657610835610747565b5b6108418482856107f8565b509392505050565b600082601f83011261085e5761085d610742565b5b813561086e848260208601610807565b91505092915050565b60006020828403121561088d5761088c61041b565b5b600082013567ffffffffffffffff8111156108ab576108aa610420565b5b6108b784828501610849565b91505092915050565b7f4e487b7100000000000000000000000000000000000000000000000000000000600052602260045260246000fd5b6000600282049050600182168061090757607f821691505b60208210810361091a576109196108c0565b5b50919050565b60008190508160005260206000209050919050565b60006020601f8301049050919050565b600082821b905092915050565b6000600883026109827fffffffffffffffffffffffffffffffffffffffffffffffffffffffffffffffff82610945565b61098c8683610945565b95508019841693508086168417925050509392505050565b6000819050919050565b60006109c96109c46109bf84610483565b6109a4565b610483565b9050919050565b6000819050919050565b6109e3836109ae565b6109f76109ef826109d0565b848454610952565b825550505050565b600090565b610a0c6109ff565b610a178184846109da565b505050565b5b81811015610a3b57610a30600082610a04565b600181019050610a1d565b5050565b601f821115610a8057610a5181610920565b610a5a84610935565b81016020851015610a69578190505b610a7d610a7585610935565b830182610a1c565b50505b505050565b600082821c905092915050565b6000610aa360001984600802610a85565b1980831691505092915050565b6000610abc8383610a92565b9150826002028217905092915050565b610ad5826104f9565b67ffffffffffffffff811115610aee57610aed61074c565b5b610af882546108ef565b610b03828285610a3f565b600060209050601f831160018114610b365760008415610b24578287015190505b610b2e8582610ab0565b865550610b96565b601f198416610b4486610920565b60005b82811015610b6c57848901518255600182019150602085019450602081019050610b47565b86831015610b895784890151610b85601f891682610a92565b8355505b6001600288020188555050505b50505050505056fea2646970667358221220a568183459b7b50b5d923441a47cbeceaeb35e74b3882bb60e44775c21e83b4364736f6c63430008140033","opcodes":"PUSH1 0x80 PUSH1 0x40 MSTORE CALLVALUE DUP1 ISZERO PUSH2 0x10 JUMPI PUSH1 0x0 DUP1 REVERT JUMPDEST POP PUSH2 0xBD4 DUP1 PUSH2 0x20 PUSH1 0x0 CODECOPY PUSH1 0x0 RETURN INVALID PUSH1 0x80 PUSH1 0x40 MSTORE CALLVALUE DUP1 ISZERO PUSH2 0x10 JUMPI PUSH1 0x0 DUP1 REVERT JUMPDEST POP PUSH1 0x4 CALLDATASIZE LT PUSH2 0x41 JUMPI PUSH1 0x0 CALLDATALOAD PUSH1 0xE0 SHR DUP1 PUSH4 0x2BA6978E EQ PUSH2 0x46 JUMPI DUP1 PUSH4 0x2DA96D73 EQ PUSH2 0x77 JUMPI DUP1 PUSH4 0xEB9B9B64 EQ PUSH2 0x95 JUMPI JUMPDEST PUSH1 0x0 DUP1 REVERT JUMPDEST PUSH2 0x60 PUSH1 0x4 DUP1 CALLDATASIZE SUB DUP2 ADD SWAP1 PUSH2 0x5B SWAP2 SWAP1 PUSH2 0x4B9 JUMP JUMPDEST PUSH2 0xB1 JUMP JUMPDEST PUSH1 0x40 MLOAD PUSH2 0x6E SWAP3 SWAP2 SWAP1 PUSH2 0x598 JUMP JUMPDEST PUSH1 0x40 MLOAD DUP1 SWAP2 SUB SWAP1 RETURN JUMPDEST PUSH2 0x7F PUSH2 0x19A JUMP JUMPDEST PUSH1 0x40 MLOAD PUSH2 0x8C SWAP2 SWAP1 PUSH2 0x720 JUMP JUMPDEST PUSH1 0x40 MLOAD DUP1 SWAP2 SUB SWAP1 RETURN JUMPDEST PUSH2 0xAF PUSH1 0x4 DUP1 CALLDATASIZE SUB DUP2 ADD SWAP1 PUSH2 0xAA SWAP2 SWAP1 PUSH2 0x877 JUMP JUMPDEST PUSH2 0x31D JUMP JUMPDEST STOP JUMPDEST PUSH1 0x0 PUSH1 0x20 MSTORE DUP2 PUSH1 0x0 MSTORE PUSH1 0x40 PUSH1 0x0 KECCAK256 DUP2 DUP2 SLOAD DUP2 LT PUSH2 0xCD JUMPI PUSH1 0x0 DUP1 REVERT JUMPDEST SWAP1 PUSH1 0x0 MSTORE PUSH1 0x20 PUSH1 0x0 KECCAK256 SWAP1 PUSH1 0x2 MUL ADD PUSH1 0x0 SWAP2 POP SWAP2 POP POP DUP1 PUSH1 0x0 ADD DUP1 SLOAD PUSH2 0xF1 SWAP1 PUSH2 0x8EF JUMP JUMPDEST DUP1 PUSH1 0x1F ADD PUSH1 0x20 DUP1 SWAP2 DIV MUL PUSH1 0x20 ADD PUSH1 0x40 MLOAD SWAP1 DUP2 ADD PUSH1 0x40 MSTORE DUP1 SWAP3 SWAP2 SWAP1 DUP2 DUP2 MSTORE PUSH1 0x20 ADD DUP3 DUP1 SLOAD PUSH2 0x11D SWAP1 PUSH2 0x8EF JUMP JUMPDEST DUP1 ISZERO PUSH2 0x16A JUMPI DUP1 PUSH1 0x1F LT PUSH2 0x13F JUMPI PUSH2 0x100 DUP1 DUP4 SLOAD DIV MUL DUP4 MSTORE SWAP2 PUSH1 0x20 ADD SWAP2 PUSH2 0x16A JUMP JUMPDEST DUP3 ADD SWAP2 SWAP1 PUSH1 0x0 MSTORE PUSH1 0x20 PUSH1 0x0 KECCAK256 SWAP1 JUMPDEST DUP2 SLOAD DUP2 MSTORE SWAP1 PUSH1 0x1 ADD SWAP1 PUSH1 0x20 ADD DUP1 DUP4 GT PUSH2 0x14D JUMPI DUP3 SWAP1 SUB PUSH1 0x1F AND DUP3 ADD SWAP2 JUMPDEST POP POP POP POP POP SWAP1 DUP1 PUSH1 0x1 ADD PUSH1 0x0 SWAP1 SLOAD SWAP1 PUSH2 0x100 EXP SWAP1 DIV PUSH20 0xFFFFFFFFFFFFFFFFFFFFFFFFFFFFFFFFFFFFFFFF AND SWAP1 POP DUP3 JUMP JUMPDEST PUSH1 0x60 PUSH1 0x0 DUP1 CALLER PUSH20 0xFFFFFFFFFFFFFFFFFFFFFFFFFFFFFFFFFFFFFFFF AND PUSH20 0xFFFFFFFFFFFFFFFFFFFFFFFFFFFFFFFFFFFFFFFF AND DUP2 MSTORE PUSH1 0x20 ADD SWAP1 DUP2 MSTORE PUSH1 0x20 ADD PUSH1 0x0 KECCAK256 DUP1 SLOAD DUP1 PUSH1 0x20 MUL PUSH1 0x20 ADD PUSH1 0x40 MLOAD SWAP1 DUP2 ADD PUSH1 0x40 MSTORE DUP1 SWAP3 SWAP2 SWAP1 DUP2 DUP2 MSTORE PUSH1 0x20 ADD PUSH1 0x0 SWAP1 JUMPDEST DUP3 DUP3 LT ISZERO PUSH2 0x314 JUMPI DUP4 DUP3 SWAP1 PUSH1 0x0 MSTORE PUSH1 0x20 PUSH1 0x0 KECCAK256 SWAP1 PUSH1 0x2 MUL ADD PUSH1 0x40 MLOAD DUP1 PUSH1 0x40 ADD PUSH1 0x40 MSTORE SWAP1 DUP2 PUSH1 0x0 DUP3 ADD DUP1 SLOAD PUSH2 0x22D SWAP1 PUSH2 0x8EF JUMP JUMPDEST DUP1 PUSH1 0x1F ADD PUSH1 0x20 DUP1 SWAP2 DIV MUL PUSH1 0x20 ADD PUSH1 0x40 MLOAD SWAP1 DUP2 ADD PUSH1 0x40 MSTORE DUP1 SWAP3 SWAP2 SWAP1 DUP2 DUP2 MSTORE PUSH1 0x20 ADD DUP3 DUP1 SLOAD PUSH2 0x259 SWAP1 PUSH2 0x8EF JUMP JUMPDEST DUP1 ISZERO PUSH2 0x2A6 JUMPI DUP1 PUSH1 0x1F LT PUSH2 0x27B JUMPI PUSH2 0x100 DUP1 DUP4 SLOAD DIV MUL DUP4 MSTORE SWAP2 PUSH1 0x20 ADD SWAP2 PUSH2 0x2A6 JUMP JUMPDEST DUP3 ADD SWAP2 SWAP1 PUSH1 0x0 MSTORE PUSH1 0x20 PUSH1 0x0 KECCAK256 SWAP1 JUMPDEST DUP2 SLOAD DUP2 MSTORE SWAP1 PUSH1 0x1 ADD SWAP1 PUSH1 0x20 ADD DUP1 DUP4 GT PUSH2 0x289 JUMPI DUP3 SWAP1 SUB PUSH1 0x1F AND DUP3 ADD SWAP2 JUMPDEST POP POP POP POP POP DUP2 MSTORE PUSH1 0x20 ADD PUSH1 0x1 DUP3 ADD PUSH1 0x0 SWAP1 SLOAD SWAP1 PUSH2 0x100 EXP SWAP1 DIV PUSH20 0xFFFFFFFFFFFFFFFFFFFFFFFFFFFFFFFFFFFFFFFF AND PUSH20 0xFFFFFFFFFFFFFFFFFFFFFFFFFFFFFFFFFFFFFFFF AND PUSH20 0xFFFFFFFFFFFFFFFFFFFFFFFFFFFFFFFFFFFFFFFF AND DUP2 MSTORE POP POP DUP2 MSTORE PUSH1 0x20 ADD SWAP1 PUSH1 0x1 ADD SWAP1 PUSH2 0x1FA JUMP JUMPDEST POP POP POP POP SWAP1 POP SWAP1 JUMP JUMPDEST PUSH1 0x0 DUP1 CALLER PUSH20 0xFFFFFFFFFFFFFFFFFFFFFFFFFFFFFFFFFFFFFFFF AND PUSH20 0xFFFFFFFFFFFFFFFFFFFFFFFFFFFFFFFFFFFFFFFF AND DUP2 MSTORE PUSH1 0x20 ADD SWAP1 DUP2 MSTORE PUSH1 0x20 ADD PUSH1 0x0 KECCAK256 PUSH1 0x40 MLOAD DUP1 PUSH1 0x40 ADD PUSH1 0x40 MSTORE DUP1 DUP4 DUP2 MSTORE PUSH1 0x20 ADD CALLER PUSH20 0xFFFFFFFFFFFFFFFFFFFFFFFFFFFFFFFFFFFFFFFF AND DUP2 MSTORE POP SWAP1 DUP1 PUSH1 0x1 DUP2 SLOAD ADD DUP1 DUP3 SSTORE DUP1 SWAP2 POP POP PUSH1 0x1 SWAP1 SUB SWAP1 PUSH1 0x0 MSTORE PUSH1 0x20 PUSH1 0x0 KECCAK256 SWAP1 PUSH1 0x2 MUL ADD PUSH1 0x0 SWAP1 SWAP2 SWAP1 SWAP2 SWAP1 SWAP2 POP PUSH1 0x0 DUP3 ADD MLOAD DUP2 PUSH1 0x0 ADD SWAP1 DUP2 PUSH2 0x3C4 SWAP2 SWAP1 PUSH2 0xACC JUMP JUMPDEST POP PUSH1 0x20 DUP3 ADD MLOAD DUP2 PUSH1 0x1 ADD PUSH1 0x0 PUSH2 0x100 EXP DUP2 SLOAD DUP2 PUSH20 0xFFFFFFFFFFFFFFFFFFFFFFFFFFFFFFFFFFFFFFFF MUL NOT AND SWAP1 DUP4 PUSH20 0xFFFFFFFFFFFFFFFFFFFFFFFFFFFFFFFFFFFFFFFF AND MUL OR SWAP1 SSTORE POP POP POP POP JUMP JUMPDEST PUSH1 0x0 PUSH1 0x40 MLOAD SWAP1 POP SWAP1 JUMP JUMPDEST PUSH1 0x0 DUP1 REVERT JUMPDEST PUSH1 0x0 DUP1 REVERT JUMPDEST PUSH1 0x0 PUSH20 0xFFFFFFFFFFFFFFFFFFFFFFFFFFFFFFFFFFFFFFFF DUP3 AND SWAP1 POP SWAP2 SWAP1 POP JUMP JUMPDEST PUSH1 0x0 PUSH2 0x450 DUP3 PUSH2 0x425 JUMP JUMPDEST SWAP1 POP SWAP2 SWAP1 POP JUMP JUMPDEST PUSH2 0x460 DUP2 PUSH2 0x445 JUMP JUMPDEST DUP2 EQ PUSH2 0x46B JUMPI PUSH1 0x0 DUP1 REVERT JUMPDEST POP JUMP JUMPDEST PUSH1 0x0 DUP2 CALLDATALOAD SWAP1 POP PUSH2 0x47D DUP2 PUSH2 0x457 JUMP JUMPDEST SWAP3 SWAP2 POP POP JUMP JUMPDEST PUSH1 0x0 DUP2 SWAP1 POP SWAP2 SWAP1 POP JUMP JUMPDEST PUSH2 0x496 DUP2 PUSH2 0x483 JUMP JUMPDEST DUP2 EQ PUSH2 0x4A1 JUMPI PUSH1 0x0 DUP1 REVERT JUMPDEST POP JUMP JUMPDEST PUSH1 0x0 DUP2 CALLDATALOAD SWAP1 POP PUSH2 0x4B3 DUP2 PUSH2 0x48D JUMP JUMPDEST SWAP3 SWAP2 POP POP JUMP JUMPDEST PUSH1 0x0 DUP1 PUSH1 0x40 DUP4 DUP6 SUB SLT ISZERO PUSH2 0x4D0 JUMPI PUSH2 0x4CF PUSH2 0x41B JUMP JUMPDEST JUMPDEST PUSH1 0x0 PUSH2 0x4DE DUP6 DUP3 DUP7 ADD PUSH2 0x46E JUMP JUMPDEST SWAP3 POP POP PUSH1 0x20 PUSH2 0x4EF DUP6 DUP3 DUP7 ADD PUSH2 0x4A4 JUMP JUMPDEST SWAP2 POP POP SWAP3 POP SWAP3 SWAP1 POP JUMP JUMPDEST PUSH1 0x0 DUP2 MLOAD SWAP1 POP SWAP2 SWAP1 POP JUMP JUMPDEST PUSH1 0x0 DUP3 DUP3 MSTORE PUSH1 0x20 DUP3 ADD SWAP1 POP SWAP3 SWAP2 POP POP JUMP JUMPDEST PUSH1 0x0 JUMPDEST DUP4 DUP2 LT ISZERO PUSH2 0x533 JUMPI DUP1 DUP3 ADD MLOAD DUP2 DUP5 ADD MSTORE PUSH1 0x20 DUP2 ADD SWAP1 POP PUSH2 0x518 JUMP JUMPDEST PUSH1 0x0 DUP5 DUP5 ADD MSTORE POP POP POP POP JUMP JUMPDEST PUSH1 0x0 PUSH1 0x1F NOT PUSH1 0x1F DUP4 ADD AND SWAP1 POP SWAP2 SWAP1 POP JUMP JUMPDEST PUSH1 0x0 PUSH2 0x55B DUP3 PUSH2 0x4F9 JUMP JUMPDEST PUSH2 0x565 DUP2 DUP6 PUSH2 0x504 JUMP JUMPDEST SWAP4 POP PUSH2 0x575 DUP2 DUP6 PUSH1 0x20 DUP7 ADD PUSH2 0x515 JUMP JUMPDEST PUSH2 0x57E DUP2 PUSH2 0x53F JUMP JUMPDEST DUP5 ADD SWAP2 POP POP SWAP3 SWAP2 POP POP JUMP JUMPDEST PUSH2 0x592 DUP2 PUSH2 0x445 JUMP JUMPDEST DUP3 MSTORE POP POP JUMP JUMPDEST PUSH1 0x0 PUSH1 0x40 DUP3 ADD SWAP1 POP DUP2 DUP2 SUB PUSH1 0x0 DUP4 ADD MSTORE PUSH2 0x5B2 DUP2 DUP6 PUSH2 0x550 JUMP JUMPDEST SWAP1 POP PUSH2 0x5C1 PUSH1 0x20 DUP4 ADD DUP5 PUSH2 0x589 JUMP JUMPDEST SWAP4 SWAP3 POP POP POP JUMP JUMPDEST PUSH1 0x0 DUP2 MLOAD SWAP1 POP SWAP2 SWAP1 POP JUMP JUMPDEST PUSH1 0x0 DUP3 DUP3 MSTORE PUSH1 0x20 DUP3 ADD SWAP1 POP SWAP3 SWAP2 POP POP JUMP JUMPDEST PUSH1 0x0 DUP2 SWAP1 POP PUSH1 0x20 DUP3 ADD SWAP1 POP SWAP2 SWAP1 POP JUMP JUMPDEST PUSH1 0x0 DUP3 DUP3 MSTORE PUSH1 0x20 DUP3 ADD SWAP1 POP SWAP3 SWAP2 POP POP JUMP JUMPDEST PUSH1 0x0 PUSH2 0x610 DUP3 PUSH2 0x4F9 JUMP JUMPDEST PUSH2 0x61A DUP2 DUP6 PUSH2 0x5F4 JUMP JUMPDEST SWAP4 POP PUSH2 0x62A DUP2 DUP6 PUSH1 0x20 DUP7 ADD PUSH2 0x515 JUMP JUMPDEST PUSH2 0x633 DUP2 PUSH2 0x53F JUMP JUMPDEST DUP5 ADD SWAP2 POP POP SWAP3 SWAP2 POP POP JUMP JUMPDEST PUSH2 0x647 DUP2 PUSH2 0x445 JUMP JUMPDEST DUP3 MSTORE POP POP JUMP JUMPDEST PUSH1 0x0 PUSH1 0x40 DUP4 ADD PUSH1 0x0 DUP4 ADD MLOAD DUP5 DUP3 SUB PUSH1 0x0 DUP7 ADD MSTORE PUSH2 0x66A DUP3 DUP3 PUSH2 0x605 JUMP JUMPDEST SWAP2 POP POP PUSH1 0x20 DUP4 ADD MLOAD PUSH2 0x67F PUSH1 0x20 DUP7 ADD DUP3 PUSH2 0x63E JUMP JUMPDEST POP DUP1 SWAP2 POP POP SWAP3 SWAP2 POP POP JUMP JUMPDEST PUSH1 0x0 PUSH2 0x696 DUP4 DUP4 PUSH2 0x64D JUMP JUMPDEST SWAP1 POP SWAP3 SWAP2 POP POP JUMP JUMPDEST PUSH1 0x0 PUSH1 0x20 DUP3 ADD SWAP1 POP SWAP2 SWAP1 POP JUMP JUMPDEST PUSH1 0x0 PUSH2 0x6B6 DUP3 PUSH2 0x5C8 JUMP JUMPDEST PUSH2 0x6C0 DUP2 DUP6 PUSH2 0x5D3 JUMP JUMPDEST SWAP4 POP DUP4 PUSH1 0x20 DUP3 MUL DUP6 ADD PUSH2 0x6D2 DUP6 PUSH2 0x5E4 JUMP JUMPDEST DUP1 PUSH1 0x0 JUMPDEST DUP6 DUP2 LT ISZERO PUSH2 0x70E JUMPI DUP5 DUP5 SUB DUP10 MSTORE DUP2 MLOAD PUSH2 0x6EF DUP6 DUP3 PUSH2 0x68A JUMP JUMPDEST SWAP5 POP PUSH2 0x6FA DUP4 PUSH2 0x69E JUMP JUMPDEST SWAP3 POP PUSH1 0x20 DUP11 ADD SWAP10 POP POP PUSH1 0x1 DUP2 ADD SWAP1 POP PUSH2 0x6D6 JUMP JUMPDEST POP DUP3 SWAP8 POP DUP8 SWAP6 POP POP POP POP POP POP SWAP3 SWAP2 POP POP JUMP JUMPDEST PUSH1 0x0 PUSH1 0x20 DUP3 ADD SWAP1 POP DUP2 DUP2 SUB PUSH1 0x0 DUP4 ADD MSTORE PUSH2 0x73A DUP2 DUP5 PUSH2 0x6AB JUMP JUMPDEST SWAP1 POP SWAP3 SWAP2 POP POP JUMP JUMPDEST PUSH1 0x0 DUP1 REVERT JUMPDEST PUSH1 0x0 DUP1 REVERT JUMPDEST PUSH32 0x4E487B7100000000000000000000000000000000000000000000000000000000 PUSH1 0x0 MSTORE PUSH1 0x41 PUSH1 0x4 MSTORE PUSH1 0x24 PUSH1 0x0 REVERT JUMPDEST PUSH2 0x784 DUP3 PUSH2 0x53F JUMP JUMPDEST DUP2 ADD DUP2 DUP2 LT PUSH8 0xFFFFFFFFFFFFFFFF DUP3 GT OR ISZERO PUSH2 0x7A3 JUMPI PUSH2 0x7A2 PUSH2 0x74C JUMP JUMPDEST JUMPDEST DUP1 PUSH1 0x40 MSTORE POP POP POP JUMP JUMPDEST PUSH1 0x0 PUSH2 0x7B6 PUSH2 0x411 JUMP JUMPDEST SWAP1 POP PUSH2 0x7C2 DUP3 DUP3 PUSH2 0x77B JUMP JUMPDEST SWAP2 SWAP1 POP JUMP JUMPDEST PUSH1 0x0 PUSH8 0xFFFFFFFFFFFFFFFF DUP3 GT ISZERO PUSH2 0x7E2 JUMPI PUSH2 0x7E1 PUSH2 0x74C JUMP JUMPDEST JUMPDEST PUSH2 0x7EB DUP3 PUSH2 0x53F JUMP JUMPDEST SWAP1 POP PUSH1 0x20 DUP2 ADD SWAP1 POP SWAP2 SWAP1 POP JUMP JUMPDEST DUP3 DUP2 DUP4 CALLDATACOPY PUSH1 0x0 DUP4 DUP4 ADD MSTORE POP POP POP JUMP JUMPDEST PUSH1 0x0 PUSH2 0x81A PUSH2 0x815 DUP5 PUSH2 0x7C7 JUMP JUMPDEST PUSH2 0x7AC JUMP JUMPDEST SWAP1 POP DUP3 DUP2 MSTORE PUSH1 0x20 DUP2 ADD DUP5 DUP5 DUP5 ADD GT ISZERO PUSH2 0x836 JUMPI PUSH2 0x835 PUSH2 0x747 JUMP JUMPDEST JUMPDEST PUSH2 0x841 DUP5 DUP3 DUP6 PUSH2 0x7F8 JUMP JUMPDEST POP SWAP4 SWAP3 POP POP POP JUMP JUMPDEST PUSH1 0x0 DUP3 PUSH1 0x1F DUP4 ADD SLT PUSH2 0x85E JUMPI PUSH2 0x85D PUSH2 0x742 JUMP JUMPDEST JUMPDEST DUP2 CALLDATALOAD PUSH2 0x86E DUP5 DUP3 PUSH1 0x20 DUP7 ADD PUSH2 0x807 JUMP JUMPDEST SWAP2 POP POP SWAP3 SWAP2 POP POP JUMP JUMPDEST PUSH1 0x0 PUSH1 0x20 DUP3 DUP5 SUB SLT ISZERO PUSH2 0x88D JUMPI PUSH2 0x88C PUSH2 0x41B JUMP JUMPDEST JUMPDEST PUSH1 0x0 DUP3 ADD CALLDATALOAD PUSH8 0xFFFFFFFFFFFFFFFF DUP2 GT ISZERO PUSH2 0x8AB JUMPI PUSH2 0x8AA PUSH2 0x420 JUMP JUMPDEST JUMPDEST PUSH2 0x8B7 DUP5 DUP3 DUP6 ADD PUSH2 0x849 JUMP JUMPDEST SWAP2 POP POP SWAP3 SWAP2 POP POP JUMP JUMPDEST PUSH32 0x4E487B7100000000000000000000000000000000000000000000000000000000 PUSH1 0x0 MSTORE PUSH1 0x22 PUSH1 0x4 MSTORE PUSH1 0x24 PUSH1 0x0 REVERT JUMPDEST PUSH1 0x0 PUSH1 0x2 DUP3 DIV SWAP1 POP PUSH1 0x1 DUP3 AND DUP1 PUSH2 0x907 JUMPI PUSH1 0x7F DUP3 AND SWAP2 POP JUMPDEST PUSH1 0x20 DUP3 LT DUP2 SUB PUSH2 0x91A JUMPI PUSH2 0x919 PUSH2 0x8C0 JUMP JUMPDEST JUMPDEST POP SWAP2 SWAP1 POP JUMP JUMPDEST PUSH1 0x0 DUP2 SWAP1 POP DUP2 PUSH1 0x0 MSTORE PUSH1 0x20 PUSH1 0x0 KECCAK256 SWAP1 POP SWAP2 SWAP1 POP JUMP JUMPDEST PUSH1 0x0 PUSH1 0x20 PUSH1 0x1F DUP4 ADD DIV SWAP1 POP SWAP2 SWAP1 POP JUMP JUMPDEST PUSH1 0x0 DUP3 DUP3 SHL SWAP1 POP SWAP3 SWAP2 POP POP JUMP JUMPDEST PUSH1 0x0 PUSH1 0x8 DUP4 MUL PUSH2 0x982 PUSH32 0xFFFFFFFFFFFFFFFFFFFFFFFFFFFFFFFFFFFFFFFFFFFFFFFFFFFFFFFFFFFFFFFF DUP3 PUSH2 0x945 JUMP JUMPDEST PUSH2 0x98C DUP7 DUP4 PUSH2 0x945 JUMP JUMPDEST SWAP6 POP DUP1 NOT DUP5 AND SWAP4 POP DUP1 DUP7 AND DUP5 OR SWAP3 POP POP POP SWAP4 SWAP3 POP POP POP JUMP JUMPDEST PUSH1 0x0 DUP2 SWAP1 POP SWAP2 SWAP1 POP JUMP JUMPDEST PUSH1 0x0 PUSH2 0x9C9 PUSH2 0x9C4 PUSH2 0x9BF DUP5 PUSH2 0x483 JUMP JUMPDEST PUSH2 0x9A4 JUMP JUMPDEST PUSH2 0x483 JUMP JUMPDEST SWAP1 POP SWAP2 SWAP1 POP JUMP JUMPDEST PUSH1 0x0 DUP2 SWAP1 POP SWAP2 SWAP1 POP JUMP JUMPDEST PUSH2 0x9E3 DUP4 PUSH2 0x9AE JUMP JUMPDEST PUSH2 0x9F7 PUSH2 0x9EF DUP3 PUSH2 0x9D0 JUMP JUMPDEST DUP5 DUP5 SLOAD PUSH2 0x952 JUMP JUMPDEST DUP3 SSTORE POP POP POP POP JUMP JUMPDEST PUSH1 0x0 SWAP1 JUMP JUMPDEST PUSH2 0xA0C PUSH2 0x9FF JUMP JUMPDEST PUSH2 0xA17 DUP2 DUP5 DUP5 PUSH2 0x9DA JUMP JUMPDEST POP POP POP JUMP JUMPDEST JUMPDEST DUP2 DUP2 LT ISZERO PUSH2 0xA3B JUMPI PUSH2 0xA30 PUSH1 0x0 DUP3 PUSH2 0xA04 JUMP JUMPDEST PUSH1 0x1 DUP2 ADD SWAP1 POP PUSH2 0xA1D JUMP JUMPDEST POP POP JUMP JUMPDEST PUSH1 0x1F DUP3 GT ISZERO PUSH2 0xA80 JUMPI PUSH2 0xA51 DUP2 PUSH2 0x920 JUMP JUMPDEST PUSH2 0xA5A DUP5 PUSH2 0x935 JUMP JUMPDEST DUP2 ADD PUSH1 0x20 DUP6 LT ISZERO PUSH2 0xA69 JUMPI DUP2 SWAP1 POP JUMPDEST PUSH2 0xA7D PUSH2 0xA75 DUP6 PUSH2 0x935 JUMP JUMPDEST DUP4 ADD DUP3 PUSH2 0xA1C JUMP JUMPDEST POP POP JUMPDEST POP POP POP JUMP JUMPDEST PUSH1 0x0 DUP3 DUP3 SHR SWAP1 POP SWAP3 SWAP2 POP POP JUMP JUMPDEST PUSH1 0x0 PUSH2 0xAA3 PUSH1 0x0 NOT DUP5 PUSH1 0x8 MUL PUSH2 0xA85 JUMP JUMPDEST NOT DUP1 DUP4 AND SWAP2 POP POP SWAP3 SWAP2 POP POP JUMP JUMPDEST PUSH1 0x0 PUSH2 0xABC DUP4 DUP4 PUSH2 0xA92 JUMP JUMPDEST SWAP2 POP DUP3 PUSH1 0x2 MUL DUP3 OR SWAP1 POP SWAP3 SWAP2 POP POP JUMP JUMPDEST PUSH2 0xAD5 DUP3 PUSH2 0x4F9 JUMP JUMPDEST PUSH8 0xFFFFFFFFFFFFFFFF DUP2 GT ISZERO PUSH2 0xAEE JUMPI PUSH2 0xAED PUSH2 0x74C JUMP JUMPDEST JUMPDEST PUSH2 0xAF8 DUP3 SLOAD PUSH2 0x8EF JUMP JUMPDEST PUSH2 0xB03 DUP3 DUP3 DUP6 PUSH2 0xA3F JUMP JUMPDEST PUSH1 0x0 PUSH1 0x20 SWAP1 POP PUSH1 0x1F DUP4 GT PUSH1 0x1 DUP2 EQ PUSH2 0xB36 JUMPI PUSH1 0x0 DUP5 ISZERO PUSH2 0xB24 JUMPI DUP3 DUP8 ADD MLOAD SWAP1 POP JUMPDEST PUSH2 0xB2E DUP6 DUP3 PUSH2 0xAB0 JUMP JUMPDEST DUP7 SSTORE POP PUSH2 0xB96 JUMP JUMPDEST PUSH1 0x1F NOT DUP5 AND PUSH2 0xB44 DUP7 PUSH2 0x920 JUMP JUMPDEST PUSH1 0x0 JUMPDEST DUP3 DUP2 LT ISZERO PUSH2 0xB6C JUMPI DUP5 DUP10 ADD MLOAD DUP3 SSTORE PUSH1 0x1 DUP3 ADD SWAP2 POP PUSH1 0x20 DUP6 ADD SWAP5 POP PUSH1 0x20 DUP2 ADD SWAP1 POP PUSH2 0xB47 JUMP JUMPDEST DUP7 DUP4 LT ISZERO PUSH2 0xB89 JUMPI DUP5 DUP10 ADD MLOAD PUSH2 0xB85 PUSH1 0x1F DUP10 AND DUP3 PUSH2 0xA92 JUMP JUMPDEST DUP4 SSTORE POP JUMPDEST PUSH1 0x1 PUSH1 0x2 DUP9 MUL ADD DUP9 SSTORE POP POP POP JUMPDEST POP POP POP POP POP POP JUMP INVALID LOG2 PUSH5 0x6970667358 0x22 SLT KECCAK256 0xA5 PUSH9 0x183459B7B50B5D9234 COINBASE LOG4 PUSH29 0xBECEAEB35E74B3882BB60E44775C21E83B4364736F6C63430008140033 "},"methodIdentifiers":{"addFile(string)":"eb9b9b64","files(address,uint256)":"2ba6978e","getFiles()":"2da96d73"}}}}}