{
  "_format": "hh-sol-artifact-1",
  "contractName": "FileStorage",
  "sourceName": "contracts/FileStorage.sol",
  "abi": [
    {
      "inputs": [
        {
          "internalType": "string",
          "name": "_hash",
          "type": "string"
        }
      ],
      "name": "addFile",
      "outputs": [],
      "stateMutability": "nonpayable",
      "type": "function"
    },
    {
      "inputs": [
        {
          "internalType": "address",
          "name": "",
          "type": "address"
        },
        {
          "internalType": "uint256",
          "name": "",
          "type": "uint256"
        }
      ],
      "name": "files",
      "outputs": [
        {
          "internalType": "string",
          "name": "ipfsHash",
          "type": "string"
        },
        {
          "internalType": "address",
          "name": "owner",
          "type": "address"
        }
      ],
      "stateMutability": "view",
      "type": "function"
    },
    {
      "inputs": [],
      "name": "getFiles",
      "outputs": [
        {
          "components": [
            {
              "internalType": "string",
              "name": "ipfsHash",
              "type": "string"
            },
            {
              "internalType": "address",
              "name": "owner",
              "type": "address"
            }
          ],
          "internalType": "struct FileStorage.File[]",
          "name": "",
          "type": "tuple[]"
        }
      ],
      "stateMutability": "view",
      "type": "function"
    }
  ],
  "bytecode": "0x608060405234801561001057600080fd5b50610bd4806100206000396000f3fe608060405234801561001057600080fd5b50600436106100415760003560e01c80632ba6978e146100465780632da96d7314610077578063eb9b9b6414610095575b600080fd5b610060600480360381019061005b91906104b9565b6100b1565b60405161006e929190610598565b60405180910390f35b61007f61019a565b60405161008c9190610720565b60405180910390f35b6100af60048036038101906100aa9190610877565b61031d565b005b600060205281600052604060002081815481106100cd57600080fd5b9060005260206000209060020201600091509150508060000180546100f1906108ef565b80601f016020809104026020016040519081016040528092919081815260200182805461011d906108ef565b801561016a5780601f1061013f5761010080835404028352916020019161016a565b820191906000526020600020905b81548152906001019060200180831161014d57829003601f168201915b5050505050908060010160009054906101000a900473ffffffffffffffffffffffffffffffffffffffff16905082565b60606000803373ffffffffffffffffffffffffffffffffffffffff1673ffffffffffffffffffffffffffffffffffffffff168152602001908152602001600020805480602002602001604051908101604052809291908181526020016000905b82821015610314578382906000526020600020906002020160405180604001604052908160008201805461022d906108ef565b80601f0160208091040260200160405190810160405280929190818152602001828054610259906108ef565b80156102a65780601f1061027b576101008083540402835291602001916102a6565b820191906000526020600020905b81548152906001019060200180831161028957829003601f168201915b505050505081526020016001820160009054906101000a900473ffffffffffffffffffffffffffffffffffffffff1673ffffffffffffffffffffffffffffffffffffffff1673ffffffffffffffffffffffffffffffffffffffff1681525050815260200190600101906101fa565b50505050905090565b6000803373ffffffffffffffffffffffffffffffffffffffff1673ffffffffffffffffffffffffffffffffffffffff16815260200190815260200160002060405180604001604052808381526020013373ffffffffffffffffffffffffffffffffffffffff16815250908060018154018082558091505060019003906000526020600020906002020160009091909190915060008201518160000190816103c49190610acc565b5060208201518160010160006101000a81548173ffffffffffffffffffffffffffffffffffffffff021916908373ffffffffffffffffffffffffffffffffffffffff160217905550505050565b6000604051905090565b600080fd5b600080fd5b600073ffffffffffffffffffffffffffffffffffffffff82169050919050565b600061045082610425565b9050919050565b61046081610445565b811461046b57600080fd5b50565b60008135905061047d81610457565b92915050565b6000819050919050565b61049681610483565b81146104a157600080fd5b50565b6000813590506104b38161048d565b92915050565b600080604083850312156104d0576104cf61041b565b5b60006104de8582860161046e565b92505060206104ef858286016104a4565b9150509250929050565b600081519050919050565b600082825260208201905092915050565b60005b83811015610533578082015181840152602081019050610518565b60008484015250505050565b6000601f19601f8301169050919050565b600061055b826104f9565b6105658185610504565b9350610575818560208601610515565b61057e8161053f565b840191505092915050565b61059281610445565b82525050565b600060408201905081810360008301526105b28185610550565b90506105c16020830184610589565b9392505050565b600081519050919050565b600082825260208201905092915050565b6000819050602082019050919050565b600082825260208201905092915050565b6000610610826104f9565b61061a81856105f4565b935061062a818560208601610515565b6106338161053f565b840191505092915050565b61064781610445565b82525050565b6000604083016000830151848203600086015261066a8282610605565b915050602083015161067f602086018261063e565b508091505092915050565b6000610696838361064d565b905092915050565b6000602082019050919050565b60006106b6826105c8565b6106c081856105d3565b9350836020820285016106d2856105e4565b8060005b8581101561070e57848403895281516106ef858261068a565b94506106fa8361069e565b925060208a019950506001810190506106d6565b50829750879550505050505092915050565b6000602082019050818103600083015261073a81846106ab565b905092915050565b600080fd5b600080fd5b7f4e487b7100000000000000000000000000000000000000000000000000000000600052604160045260246000fd5b6107848261053f565b810181811067ffffffffffffffff821117156107a3576107a261074c565b5b80604052505050565b60006107b6610411565b90506107c2828261077b565b919050565b600067ffffffffffffffff8211156107e2576107e161074c565b5b6107eb8261053f565b9050602081019050919050565b82818337600083830152505050565b600061081a610815846107c7565b6107ac565b90508281526020810184848401111561083657610835610747565b5b6108418482856107f8565b509392505050565b600082601f83011261085e5761085d610742565b5b813561086e848260208601610807565b91505092915050565b60006020828403121561088d5761088c61041b565b5b600082013567ffffffffffffffff8111156108ab576108aa610420565b5b6108b784828501610849565b91505092915050565b7f4e487b7100000000000000000000000000000000000000000000000000000000600052602260045260246000fd5b6000600282049050600182168061090757607f821691505b60208210810361091a576109196108c0565b5b50919050565b60008190508160005260206000209050919050565b60006020601f8301049050919050565b600082821b905092915050565b6000600883026109827fffffffffffffffffffffffffffffffffffffffffffffffffffffffffffffffff82610945565b61098c8683610945565b95508019841693508086168417925050509392505050565b6000819050919050565b60006109c96109c46109bf84610483565b6109a4565b610483565b9050919050565b6000819050919050565b6109e3836109ae565b6109f76109ef826109d0565b848454610952565b825550505050565b600090565b610a0c6109ff565b610a178184846109da565b505050565b5b81811015610a3b57610a30600082610a04565b600181019050610a1d565b5050565b601f821115610a8057610a5181610920565b610a5a84610935565b81016020851015610a69578190505b610a7d610a7585610935565b830182610a1c565b50505b505050565b600082821c905092915050565b6000610aa360001984600802610a85565b1980831691505092915050565b6000610abc8383610a92565b9150826002028217905092915050565b610ad5826104f9565b67ffffffffffffffff811115610aee57610aed61074c565b5b610af882546108ef565b610b03828285610a3f565b600060209050601f831160018114610b365760008415610b24578287015190505b610b2e8582610ab0565b865550610b96565b601f198416610b4486610920565b60005b82811015610b6c57848901518255600182019150602085019450602081019050610b47565b86831015610b895784890151610b85601f891682610a92565b8355505b6001600288020188555050505b50505050505056fea2646970667358221220a568183459b7b50b5d923441a47cbeceaeb35e74b3882bb60e44775c21e83b4364736f6c63430008140033",
  "linkReferences": {},
  "deployedLinkReferences": {}
}